{
  "_format": "hh-sol-artifact-1",
  "contractName": "Dappazon",
  "sourceName": "contracts/Dappazon.sol",
  "abi": [
    {
      "inputs": [],
      "stateMutability": "nonpayable",
      "type": "constructor"
    },
    {
      "anonymous": false,
      "inputs": [
        {
          "indexed": false,
          "internalType": "address",
          "name": "buyer",
          "type": "address"
        },
        {
          "indexed": false,
          "internalType": "uint256",
          "name": "orderId",
          "type": "uint256"
        },
        {
          "indexed": false,
          "internalType": "uint256",
          "name": "itemId",
          "type": "uint256"
        }
      ],
      "name": "Buy",
      "type": "event"
    },
    {
      "anonymous": false,
      "inputs": [
        {
          "indexed": false,
          "internalType": "string",
          "name": "name",
          "type": "string"
        },
        {
          "indexed": false,
          "internalType": "uint256",
          "name": "cost",
          "type": "uint256"
        },
        {
          "indexed": false,
          "internalType": "uint256",
          "name": "quantity",
          "type": "uint256"
        }
      ],
      "name": "List",
      "type": "event"
    },
    {
      "inputs": [
        {
          "internalType": "uint256",
          "name": "_id",
          "type": "uint256"
        }
      ],
      "name": "buy",
      "outputs": [],
      "stateMutability": "payable",
      "type": "function"
    },
    {
      "inputs": [
        {
          "internalType": "uint256",
          "name": "",
          "type": "uint256"
        }
      ],
      "name": "items",
      "outputs": [
        {
          "internalType": "uint256",
          "name": "id",
          "type": "uint256"
        },
        {
          "internalType": "string",
          "name": "name",
          "type": "string"
        },
        {
          "internalType": "string",
          "name": "category",
          "type": "string"
        },
        {
          "internalType": "string",
          "name": "image",
          "type": "string"
        },
        {
          "internalType": "uint256",
          "name": "cost",
          "type": "uint256"
        },
        {
          "internalType": "uint256",
          "name": "rating",
          "type": "uint256"
        },
        {
          "internalType": "uint256",
          "name": "stock",
          "type": "uint256"
        }
      ],
      "stateMutability": "view",
      "type": "function"
    },
    {
      "inputs": [
        {
          "internalType": "uint256",
          "name": "_id",
          "type": "uint256"
        },
        {
          "internalType": "string",
          "name": "_name",
          "type": "string"
        },
        {
          "internalType": "string",
          "name": "_category",
          "type": "string"
        },
        {
          "internalType": "string",
          "name": "_image",
          "type": "string"
        },
        {
          "internalType": "uint256",
          "name": "_cost",
          "type": "uint256"
        },
        {
          "internalType": "uint256",
          "name": "_rating",
          "type": "uint256"
        },
        {
          "internalType": "uint256",
          "name": "_stock",
          "type": "uint256"
        }
      ],
      "name": "list",
      "outputs": [],
      "stateMutability": "nonpayable",
      "type": "function"
    },
    {
      "inputs": [
        {
          "internalType": "address",
          "name": "",
          "type": "address"
        }
      ],
      "name": "orderCount",
      "outputs": [
        {
          "internalType": "uint256",
          "name": "",
          "type": "uint256"
        }
      ],
      "stateMutability": "view",
      "type": "function"
    },
    {
      "inputs": [
        {
          "internalType": "address",
          "name": "",
          "type": "address"
        },
        {
          "internalType": "uint256",
          "name": "",
          "type": "uint256"
        }
      ],
      "name": "orders",
      "outputs": [
        {
          "internalType": "uint256",
          "name": "time",
          "type": "uint256"
        },
        {
          "components": [
            {
              "internalType": "uint256",
              "name": "id",
              "type": "uint256"
            },
            {
              "internalType": "string",
              "name": "name",
              "type": "string"
            },
            {
              "internalType": "string",
              "name": "category",
              "type": "string"
            },
            {
              "internalType": "string",
              "name": "image",
              "type": "string"
            },
            {
              "internalType": "uint256",
              "name": "cost",
              "type": "uint256"
            },
            {
              "internalType": "uint256",
              "name": "rating",
              "type": "uint256"
            },
            {
              "internalType": "uint256",
              "name": "stock",
              "type": "uint256"
            }
          ],
          "internalType": "struct Dappazon.Item",
          "name": "item",
          "type": "tuple"
        }
      ],
      "stateMutability": "view",
      "type": "function"
    },
    {
      "inputs": [],
      "name": "owner",
      "outputs": [
        {
          "internalType": "address",
          "name": "",
          "type": "address"
        }
      ],
      "stateMutability": "view",
      "type": "function"
    },
    {
      "inputs": [],
      "name": "withdraw",
      "outputs": [],
      "stateMutability": "nonpayable",
      "type": "function"
    }
  ],
  "bytecode": "0x608060405234801561001057600080fd5b50336000806101000a81548173ffffffffffffffffffffffffffffffffffffffff021916908373ffffffffffffffffffffffffffffffffffffffff16021790555061155c806100606000396000f3fe6080604052600436106100705760003560e01c80638da5cb5b1161004e5780638da5cb5b14610107578063bfb231d214610132578063d96a094a14610175578063eea8a7e81461019157610070565b80633ccfd60b14610075578063713d856b1461008c578063793b8c6d146100c9575b600080fd5b34801561008157600080fd5b5061008a6101ba565b005b34801561009857600080fd5b506100b360048036038101906100ae9190610dbf565b6102ac565b6040516100c09190610e05565b60405180910390f35b3480156100d557600080fd5b506100f060048036038101906100eb9190610e4c565b6102c4565b6040516100fe929190610fde565b60405180910390f35b34801561011357600080fd5b5061011c6104dd565b604051610129919061101d565b60405180910390f35b34801561013e57600080fd5b5061015960048036038101906101549190611038565b610501565b60405161016c97969594939291906110af565b60405180910390f35b61018f600480360381019061018a9190611038565b6106db565b005b34801561019d57600080fd5b506101b860048036038101906101b39190611268565b610b40565b005b60008054906101000a900473ffffffffffffffffffffffffffffffffffffffff1673ffffffffffffffffffffffffffffffffffffffff163373ffffffffffffffffffffffffffffffffffffffff161461021257600080fd5b60008060009054906101000a900473ffffffffffffffffffffffffffffffffffffffff1673ffffffffffffffffffffffffffffffffffffffff16476040516102599061138f565b60006040518083038185875af1925050503d8060008114610296576040519150601f19603f3d011682016040523d82523d6000602084013e61029b565b606091505b50509050806102a957600080fd5b50565b60036020528060005260406000206000915090505481565b600260205281600052604060002060205280600052604060002060009150915050806000015490806001016040518060e001604052908160008201548152602001600182018054610314906113d3565b80601f0160208091040260200160405190810160405280929190818152602001828054610340906113d3565b801561038d5780601f106103625761010080835404028352916020019161038d565b820191906000526020600020905b81548152906001019060200180831161037057829003601f168201915b505050505081526020016002820180546103a6906113d3565b80601f01602080910402602001604051908101604052809291908181526020018280546103d2906113d3565b801561041f5780601f106103f45761010080835404028352916020019161041f565b820191906000526020600020905b81548152906001019060200180831161040257829003601f168201915b50505050508152602001600382018054610438906113d3565b80601f0160208091040260200160405190810160405280929190818152602001828054610464906113d3565b80156104b15780601f10610486576101008083540402835291602001916104b1565b820191906000526020600020905b81548152906001019060200180831161049457829003601f168201915b505050505081526020016004820154815260200160058201548152602001600682015481525050905082565b60008054906101000a900473ffffffffffffffffffffffffffffffffffffffff1681565b600160205280600052604060002060009150905080600001549080600101805461052a906113d3565b80601f0160208091040260200160405190810160405280929190818152602001828054610556906113d3565b80156105a35780601f10610578576101008083540402835291602001916105a3565b820191906000526020600020905b81548152906001019060200180831161058657829003601f168201915b5050505050908060020180546105b8906113d3565b80601f01602080910402602001604051908101604052809291908181526020018280546105e4906113d3565b80156106315780601f1061060657610100808354040283529160200191610631565b820191906000526020600020905b81548152906001019060200180831161061457829003601f168201915b505050505090806003018054610646906113d3565b80601f0160208091040260200160405190810160405280929190818152602001828054610672906113d3565b80156106bf5780601f10610694576101008083540402835291602001916106bf565b820191906000526020600020905b8154815290600101906020018083116106a257829003601f168201915b5050505050908060040154908060050154908060060154905087565b6000600160008381526020019081526020016000206040518060e001604052908160008201548152602001600182018054610715906113d3565b80601f0160208091040260200160405190810160405280929190818152602001828054610741906113d3565b801561078e5780601f106107635761010080835404028352916020019161078e565b820191906000526020600020905b81548152906001019060200180831161077157829003601f168201915b505050505081526020016002820180546107a7906113d3565b80601f01602080910402602001604051908101604052809291908181526020018280546107d3906113d3565b80156108205780601f106107f557610100808354040283529160200191610820565b820191906000526020600020905b81548152906001019060200180831161080357829003601f168201915b50505050508152602001600382018054610839906113d3565b80601f0160208091040260200160405190810160405280929190818152602001828054610865906113d3565b80156108b25780601f10610887576101008083540402835291602001916108b2565b820191906000526020600020905b81548152906001019060200180831161089557829003601f168201915b505050505081526020016004820154815260200160058201548152602001600682015481525050905080608001513410156108ec57600080fd5b60008160c00151116108fd57600080fd5b60006040518060400160405280428152602001838152509050600360003373ffffffffffffffffffffffffffffffffffffffff1673ffffffffffffffffffffffffffffffffffffffff168152602001908152602001600020600081548092919061096690611434565b919050555080600260003373ffffffffffffffffffffffffffffffffffffffff1673ffffffffffffffffffffffffffffffffffffffff1681526020019081526020016000206000600360003373ffffffffffffffffffffffffffffffffffffffff1673ffffffffffffffffffffffffffffffffffffffff16815260200190815260200160002054815260200190815260200160002060008201518160000155602082015181600101600082015181600001556020820151816001019080519060200190610a34929190610caa565b506040820151816002019080519060200190610a51929190610caa565b506060820151816003019080519060200190610a6e929190610caa565b506080820151816004015560a0820151816005015560c08201518160060155505090505060018260c00151610aa3919061147d565b60016000858152602001908152602001600020600601819055507f1cbc5ab135991bd2b6a4b034a04aa2aa086dac1371cb9b16b8b5e2ed6b036bed33600360003373ffffffffffffffffffffffffffffffffffffffff1673ffffffffffffffffffffffffffffffffffffffff168152602001908152602001600020548460000151604051610b33939291906114b1565b60405180910390a1505050565b60008054906101000a900473ffffffffffffffffffffffffffffffffffffffff1673ffffffffffffffffffffffffffffffffffffffff163373ffffffffffffffffffffffffffffffffffffffff1614610b9857600080fd5b60006040518060e0016040528089815260200188815260200187815260200186815260200185815260200184815260200183815250905080600160008a8152602001908152602001600020600082015181600001556020820151816001019080519060200190610c09929190610caa565b506040820151816002019080519060200190610c26929190610caa565b506060820151816003019080519060200190610c43929190610caa565b506080820151816004015560a0820151816005015560c082015181600601559050507ffdbe2a012c10ec01592653978eaa09b5ca60b143a0e617505b2ebcbd911ec5b8878584604051610c98939291906114e8565b60405180910390a15050505050505050565b828054610cb6906113d3565b90600052602060002090601f016020900481019282610cd85760008555610d1f565b82601f10610cf157805160ff1916838001178555610d1f565b82800160010185558215610d1f579182015b82811115610d1e578251825591602001919060010190610d03565b5b509050610d2c9190610d30565b5090565b5b80821115610d49576000816000905550600101610d31565b5090565b6000604051905090565b600080fd5b600080fd5b600073ffffffffffffffffffffffffffffffffffffffff82169050919050565b6000610d8c82610d61565b9050919050565b610d9c81610d81565b8114610da757600080fd5b50565b600081359050610db981610d93565b92915050565b600060208284031215610dd557610dd4610d57565b5b6000610de384828501610daa565b91505092915050565b6000819050919050565b610dff81610dec565b82525050565b6000602082019050610e1a6000830184610df6565b92915050565b610e2981610dec565b8114610e3457600080fd5b50565b600081359050610e4681610e20565b92915050565b60008060408385031215610e6357610e62610d57565b5b6000610e7185828601610daa565b9250506020610e8285828601610e37565b9150509250929050565b610e9581610dec565b82525050565b600081519050919050565b600082825260208201905092915050565b60005b83811015610ed5578082015181840152602081019050610eba565b83811115610ee4576000848401525b50505050565b6000601f19601f8301169050919050565b6000610f0682610e9b565b610f108185610ea6565b9350610f20818560208601610eb7565b610f2981610eea565b840191505092915050565b600060e083016000830151610f4c6000860182610e8c565b5060208301518482036020860152610f648282610efb565b91505060408301518482036040860152610f7e8282610efb565b91505060608301518482036060860152610f988282610efb565b9150506080830151610fad6080860182610e8c565b5060a0830151610fc060a0860182610e8c565b5060c0830151610fd360c0860182610e8c565b508091505092915050565b6000604082019050610ff36000830185610df6565b81810360208301526110058184610f34565b90509392505050565b61101781610d81565b82525050565b6000602082019050611032600083018461100e565b92915050565b60006020828403121561104e5761104d610d57565b5b600061105c84828501610e37565b91505092915050565b600082825260208201905092915050565b600061108182610e9b565b61108b8185611065565b935061109b818560208601610eb7565b6110a481610eea565b840191505092915050565b600060e0820190506110c4600083018a610df6565b81810360208301526110d68189611076565b905081810360408301526110ea8188611076565b905081810360608301526110fe8187611076565b905061110d6080830186610df6565b61111a60a0830185610df6565b61112760c0830184610df6565b98975050505050505050565b600080fd5b600080fd5b7f4e487b7100000000000000000000000000000000000000000000000000000000600052604160045260246000fd5b61117582610eea565b810181811067ffffffffffffffff821117156111945761119361113d565b5b80604052505050565b60006111a7610d4d565b90506111b3828261116c565b919050565b600067ffffffffffffffff8211156111d3576111d261113d565b5b6111dc82610eea565b9050602081019050919050565b82818337600083830152505050565b600061120b611206846111b8565b61119d565b90508281526020810184848401111561122757611226611138565b5b6112328482856111e9565b509392505050565b600082601f83011261124f5761124e611133565b5b813561125f8482602086016111f8565b91505092915050565b600080600080600080600060e0888a03121561128757611286610d57565b5b60006112958a828b01610e37565b975050602088013567ffffffffffffffff8111156112b6576112b5610d5c565b5b6112c28a828b0161123a565b965050604088013567ffffffffffffffff8111156112e3576112e2610d5c565b5b6112ef8a828b0161123a565b955050606088013567ffffffffffffffff8111156113105761130f610d5c565b5b61131c8a828b0161123a565b945050608061132d8a828b01610e37565b93505060a061133e8a828b01610e37565b92505060c061134f8a828b01610e37565b91505092959891949750929550565b600081905092915050565b50565b600061137960008361135e565b915061138482611369565b600082019050919050565b600061139a8261136c565b9150819050919050565b7f4e487b7100000000000000000000000000000000000000000000000000000000600052602260045260246000fd5b600060028204905060018216806113eb57607f821691505b602082108114156113ff576113fe6113a4565b5b50919050565b7f4e487b7100000000000000000000000000000000000000000000000000000000600052601160045260246000fd5b600061143f82610dec565b91507fffffffffffffffffffffffffffffffffffffffffffffffffffffffffffffffff82141561147257611471611405565b5b600182019050919050565b600061148882610dec565b915061149383610dec565b9250828210156114a6576114a5611405565b5b828203905092915050565b60006060820190506114c6600083018661100e565b6114d36020830185610df6565b6114e06040830184610df6565b949350505050565b600060608201905081810360008301526115028186611076565b90506115116020830185610df6565b61151e6040830184610df6565b94935050505056fea264697066735822122057339e0c1c83d5715766f8cc4456c4bdcc980885f3f352954b4d0b9e9d87dad764736f6c63430008090033",
  "linkReferences": {},
  "deployedLinkReferences": {}
}